:020000040040BA
:10000000F8244020FD094000F9094000F9094000AA
:10001000F9094000F9094000F9094000000000001A
:10002000000000000000000000000000F90940008E
:10003000F909400000000000F9094000F9094000FA
:10004000F9094000F9094000F9094000F9094000A8
:10005000F9094000F9094000F9094000F909400098
:10006000F9094000000000005D05400071054000F6
:1000700085054000F9094000F9094000F9094000F0
:1000800099054000AD054000F9094000F90940001C
:10009000F9094000F9094000F9094000790D4000D4
:1000A000B90D4000F90D4000F9094000F909400080
:1000B000F9094000F9094000F9094000F909400038
:1000C000F9094000F9094000F9094000F909400028
:1000D00000000000F909400000000000F90940009C
:1000E000F9094000F9094000F9094000F909400008
:1000F000F9094000F9094000F9094000F9094000F8
:10010000F9094000F9094000F9094000F9094000E7
:10011000F90940000000000000000000000000009D
:10012000F9094000F9094000F9094000F9094000C7
:10013000F909400000000000F9094000F9094000F9
:1001400010B5054C237833B9044B13B10448AFF311
:1001500000800123237010BD3C04402000000000FB
:10016000201140000C4B43B10C480D4910B5AFF3C2
:1001700000800C48036823B910BD0A48036833B9EE
:100180007047094B002BF7D0BDE810401847064BCD
:10019000002BF5D0184700BF0000000020114000E0
:1001A00040044020201140000000000010B48901EC
:1001B0004318022444504FF0FF319962196A5A6083
:1001C0005DF8044B7047890105234350704700EBED
:1001D0008111CA61704700EB81114A62704700EBE0
:1001E0008111086A7047F0B486B002240194082493
:1001F000029420240394802404940A9CE40B059424
:10020000B0EB510F14D84C0CA04217D2012501AF0E
:1002100057F82540B1FBF4F4260C84420AD38642F9
:100220000DD90135052DF3D1002006B0F0BC704783
:100230000020FAE70020F8E70120F6E700252AB1C0
:1002400006A901EB850151F8141C1160002BF3D0B5
:100250001D600120E9E7000010B51048104B9847D9
:100260003E2100200F4B98470F4CA0470028FCD0A0
:100270000E4B98470E4A0F4B9A620F4CA04700282E
:10028000FCD002200D4B984700200D4B98470D4B9A
:1002900098470248024B984710BD00BF00A3E111E8
:1002A000D10B40005D064000B1064000C106400091
:1002B000013F182000060E40D1064000C105400055
:1002C000F9054000C50A400001637047416370476B
:1002D0004264B1F1C05F3AD013D8B1F1006F25D0BC
:1002E000B1F1805F0AD1036F13430367436F416F1E
:1002F0000B4023EA02034367426070470029FBD1A9
:100300007047B1F1205F21D009D8B1F1005FF3D17E
:10031000036F13430367436F13434367ECE7B1F184
:10032000405F13D0B1F1605F10D0E5E710B4016F0A
:10033000046FD34321401C4619400167436F416F4E
:100340000B402340436742605DF8044B7047036FE6
:10035000016F0B4023EA02030367436F13434367B4
:10036000CAE7416412F0010F0DD1016612F00A0FC5
:100370000BD0016212F0020F09D112F0080F08D061
:10038000C0F8841005E04166F0E74162F2E7C0F88A
:10039000801041610160704710B4019C41644CB908
:1003A00001664BB101654AB94163016101605DF8C5
:1003B000044B70474166F4E74165F4E70163F4E7F5
:1003C00070B582B0054616461C46B1F1005F14D0E8
:1003D0000AD9B1F1405F24D0B1F1605F21D0B1F111
:1003E000205F17D000201AE0B1F1805F05D0B1F195
:1003F000C05F02D0B1F1006FF4D132462846114BF4
:10040000984714F0010F02D12E66012007E06E66B6
:10041000012004E01A4631460B4B9847012002B0F8
:1004200070BD04F001030093C4F38003B1F1605F79
:1004300014BF0022012231462846044CA047012067
:10044000EDE700BFD1024000630340009903400084
:10045000836B0B4214BF01200020704712F0100F75
:1004600012D0C0F8B01012F0200F07D0C0F8D4108E
:1004700012F0400F05D0C0F8C0107047C0F8D0107F
:10048000F6E7C0F8C4107047C0F8B41070470164B4
:100490007047C06C7047806C704700002DE9F041D8
:1004A000044688460E4B9847054620460D4B984714
:1004B000054013D00C4C04F1600603E0B4420DD0AB
:1004C00010345DB120684045F8D161682942F5D00B
:1004D000E3689847636825EA0305EFE7BDE8F08124
:1004E000930440009704400058044020F8B5184C8D
:1004F0002668062E2AD84FF0000C6446154F04E0FB
:100500000134E4B2A446A64209D3A64625017D598A
:100510008D42F5D107EB04156D689542F0D10D4D74
:100520004FEA0E1E05EB0E0445F80E106260A36044
:100530000699E1600136664505D011461A46064B1C
:1005400098470020F8BD02490E60F6E70120F8BD8B
:10055000C8044020580440205D04400008B50A212A
:100560000148024B984708BD000E0E409D04400014
:1005700008B50B210148024B984708BD00100E40FA
:100580009D04400008B50C210148024B984708BD66
:1005900000120E409D04400008B510210148024B96
:1005A000984708BD00140E409D04400008B5112175
:1005B0000148024B984708BD00160E409D044000BC
:1005C000032811D0042812D002280CBF4FF48071E8
:1005D0000021084A136B23F440730B431363936E9B
:1005E00013F0080FFBD070474FF44071F1E74FF460
:1005F0000071EEE700060E40174A136B23F07003FC
:1006000018431063936E13F0080F0AD14FF4805310
:1006100011498A6E12F0080F03D1013BF9D1012074
:1006200070470D4A136B23F0030343F00203136377
:10063000936E13F0080F0AD14FF4805306498A6E67
:1006400012F0080F05D1013BF9D1012070470020BD
:1006500070470020704700BF00060E40A0B90E484A
:10066000036A090289B20D4A1A400D4B134319431C
:1006700001620246936E13F0010FFBD0064A116A25
:10068000084B0B431362704703490B6A064A1A4032
:10069000064B13430B62704700060E40FCFFC8FF79
:1006A0000100370000003701FCFFC8FE02003701DF
:1006B000024B986E00F48030704700BF00060E4079
:1006C0004FF00052014B9A62704700BF00060E4087
:1006D000024B986E00F00200704700BF00060E400B
:1006E0003F281ED81F280CD8114B9A69012383403C
:1006F000934318D0012303FA00F00D4B186100203A
:10070000704720380A4BD3F80821012383409343D4
:100710000BD0012303FA00F0054BC3F800010020C1
:10072000704701207047002070470020704700BFCD
:1007300000060E4070470000104A136F23F4C003F8
:1007400043F480031367116A0D4B0B431362936EDE
:1007500013F0080FFBD04FF4FA7300BF013BFCD13C
:10076000064A136A13F0080FFBD0044A136F23F4F0
:10077000C00343F480031367704700BF00060E40B8
:10078000040037002DE9F843431E042B00F20781D3
:10079000DFE813F00500050015001500F600814A9A
:1007A000136923F00403136101227F4B1A70BFF316
:1007B0005F8F62B6BFF34F8F30BFBDE8F88304464A
:1007C00003280CBF00204FF40010784B984772B6F6
:1007D000BFF35F8F0022744B1A700122744B1A70A2
:1007E000744B1F6A1D6B744AD2F800809E6A734A6C
:1007F0003A431A6205F00309B9F1010F40F289800A
:1008000025F0030141F0010119631A46936E13F0BC
:10081000080FFBD011F0700F08D021F07001654B6C
:1008200019631A46936E13F0080FFBD0644B984778
:10083000604A936E13F4003FFBD05E4A116A614B2D
:100840000B4043F45C131362936E13F4803FFBD0B0
:1008500028F47063584A1360042C5CD0524C012376
:100860002370BFF35F8F62B6574B984772B6BFF3E2
:100870005F8F0023237017F0020F55D04D4A136A83
:1008800052491940524B0B431362116A514B0B40B2
:1008900043F45C131362504B3340002B6ED046F090
:1008A0000056444B9E620221B9F1020F04D1414A25
:1008B000936E13F0020FFBD03E4A136B23F07003CC
:1008C00005F0700003431363936E13F0080FFBD021
:1008D000394BC3F80080A3F5C0631D631A46936EBD
:1008E00013F0080FFBD0334A936E0B42FCD000226A
:1008F0002F4B1A70394B1B681BB198470022374B9E
:100900001A600122284B1A70BFF35F8F62B6BDE8F0
:10091000F88329467EE7A2F5C062116A304B0B408E
:1009200043F45C13136299E717F0010FB3D0214B26
:100930001B6A13F0010F0BD11E490B6A294A1A409A
:10094000294B13430B620A46936E13F0010FFBD041
:10095000184B1B6A13F0807F08D1164A116A234B8B
:100960000B431362936E13F4803FFBD0114A116A5C
:10097000184B0B4043F45C1313628CE7002193E7A0
:10098000084A136943F004031361194A194B1A60AA
:100990000122054B1A70BFF35F8F62B630BFBDE80E
:1009A000F88300BF00ED00E0000040203507400064
:1009B000CC04402000060E40000C0E40080037001A
:1009C000C1064000FFFFC8FE39074000FCFFC8FE1B
:1009D0000200370187FFC8FF0000FF07D004402056
:1009E000FEFFC8FFFCFFC8FF010037000000370111
:1009F000040000A510180E40FEE7000000B583B00B
:100A0000254B264A9A4210D0254B234A9A420CD2B3
:100A1000013B9B1A23F00303043313441F4951F88D
:100A2000040B42F8040B9A42F9D11E4B1E4A9A421B
:100A30000AD2013B9B1A23F0030304331344002121
:100A400042F8041B9342FBD1184A194B23F07F0351
:100A50009360EFF31083B3FA83F35B09019372B6EB
:100A6000BFF35F8F0022134B1A700199124A13686B
:100A700043F470031360BFF34F8FBFF36F8F29B13F
:100A800001220C4B1A70BFF35F8F62B60B4B984775
:100A90000B4B9847FEE700BF0000402020114000AC
:100AA0003C044020F80440203C04402000ED00E0DD
:100AB000000040000000402088ED00E0890F400069
:100AC0005D0F40003B4B1B6B03F00303012B1DD05C
:100AD00083B1022B36D0374B1B6B03F07003702BA6
:100AE0005FD0344B1A6B3449C2F302120B68D34007
:100AF0000B607047314B5B6913F0800F14BF4FF4EC
:100B000000424FF4FA422C4B1A60E4E7294B1B6A6F
:100B100013F0807F03D02A4A274B1A60DBE7294A6B
:100B2000254B1A60234B1B6A03F07003102B05D072
:100B3000202BD0D1224A204B1A60CCE7224A1E4BF0
:100B40001A60C8E71B4B1B6A13F0807F16D01C4A43
:100B5000194B1A60174B1B6B03F00303022BBAD11E
:100B6000144A916A926A1448C1F30A41036801FB6E
:100B70000333D2B2B3FBF2F30360ACE7114A0E4B7E
:100B80001A600C4B1B6A03F07003102B05D0202B4E
:100B9000E0D10B4A084B1A60DCE70B4A064B1A609F
:100BA000D8E7054A13680949A1FB03135B081360E2
:100BB000704700BF00060E400400402010180E4091
:100BC000001BB70000093D0000127A00ABAAAAAAD8
:100BD000164B984213D9164B984215D9154B98428B
:100BE00016D9154B984217D9144B984218D9144B63
:100BF000984294BF134A144A144B1A6070474FF03E
:100C00008062124B1A607047114A104B1A6070478D
:100C1000104A0E4B1A6070470F4A0C4B1A6070470F
:100C20004FF00422094B1A60704700BFBFF35E010A
:100C30007FE7BD023FDB1C04FFCE7B05BFC2DA06A7
:100C40007FB639080005000400060004000C0E40C1
:100C5000000100040002000400030004034A1378AA
:100C6000C3F10103DBB21370704700BF08004020DE
:100C7000034A1378C3F10103DBB21370704700BF5E
:100C800009004020034A1378C3F10103DBB213705B
:100C9000704700BF0A00402038B504460D46064B99
:100CA000984720B929462046044B984738BD294625
:100CB0002046034B984738BD51044000C90240000C
:100CC000CD0240002DE9F04385B006460C4617469C
:100CD000984608461E4B98471E4D009502AB03AA46
:100CE00029464046DFF88C90C847029A42F4804279
:100CF00039463046184B9847039AB5FBF2F2B2FBDF
:100D0000F8F239463046154B984763B2002B17DB93
:100D1000134A8021D1545B0904F01F04012202FA16
:100D200004F4104A42F823401022394630460E4B54
:100D30009847394630460D4B984705B0BDE8F083DB
:100D400004F00F010A4A0A4480211176E3E700BF4C
:100D5000E106400000A3E111AD014000CF014000D9
:100D600000E400E000E100E0D7014000C7014000DE
:100D7000FCEC00E0E701400000B583B00021094829
:100D8000094B98470190019B084B1B78DBB2012B64
:100D900002D003B05DF804FB01210548054B9847DC
:100DA000F7E700BF00C00040DF014000080040201E
:100DB000000E0E40990C400000B583B00121094897
:100DC000094B98470190019B084B1B78DBB2012B24
:100DD00002D003B05DF804FB4FF080410448054B9E
:100DE0009847F6E700C00040DF01400009004020BE
:100DF00000120E40990C400000B583B00221094852
:100E0000094B98470190019B084B1B78DBB2012BE3
:100E100002D003B05DF804FB04210548054B984758
:100E2000F7E700BF00C00040DF0140000A0040209B
:100E300000100E40990C4000F0B583B00A20384FE6
:100E4000B847384C01231A464FF040512046364EE1
:100E5000B0470C20B847354D00234FF080424FF08B
:100E600040512846B0470B20B847314F0123042298
:100E70004FF040513846B047012120462D4EB04733
:100E80004FF0804128462C4B984704213846B04704
:100E90002A4B009370234FF400620A212046284E0B
:100EA000B047284B009350234FF000420C212846B6
:100EB000B047254B009370234FF400220A212046AF
:100EC000B0474FF400612046204EB0474FF000413C
:100ED0002846B0474FF400212046B0471C4B4FF442
:100EE00080621A604FF4805119601A60802283F882
:100EF0000A2383F80C2383F80A23164D05230022C6
:100F000017212846144CA0470A23012218212846FD
:100F1000A0470123022219212846A04703B0F0BDB3
:100F2000E1064000000E0E40C103400000120E40DA
:100F300000100E40CD024000C90240005D0C400090
:100F4000ED044000710C4000850C40008F0440000F
:100F500000E100E000C00040C50C400008B5064BB1
:100F60009847064B98474FF40042054B5A600225BC
:100F7000044C2846A047FCE759024000390E4000C7
:100F800050180E408507400070B50F4E0F4D761B70
:100F9000B61018BF002405D0013455F8043B98471B
:100FA000A642F9D10A4E0B4D761B00F0A7F8B610F9
:100FB00018BF002406D0013455F8043B9847A642D8
:100FC000F9D170BD70BD00BF08114000081140008C
:100FD0001011400008114000024B13B1024800F00C
:100FE00005B8704700000000F90F400000230146DB
:100FF0001A46184600F01EB838B50A4C0A4D641B54
:10100000A4100AD004F18043013B05EB8305013CA9
:1010100055F804399847002CF9D1BDE8384000F064
:1010200077B800BF201140001C114000704700BF7E
:10103000704700BF2DE9F8432C4D064628689846B6
:101040000F469146FFF7F2FF294B1C68D4F8483150
:10105000002B3ED05A681F2A1CDC02F1010E76B12B
:1010600003EB82010124C1F88890D3F888019440F1
:101070002043022EC3F88801C1F8088123D0023230
:10108000C3F804E0286843F82270FFF7D1FF00207E
:10109000BDE8F883174B0BB34FF4C870AFF3008073
:1010A0000346D8B1D4F848210260002141600A46C5
:1010B000C4F848014FF0010EC0F88811C0F88C1137
:1010C000002EDCD0CCE7D3F88C110C43C3F88C4154
:1010D000D5E704F5A673C4F84831BBE72868FFF7E5
:1010E000A7FF4FF0FF30BDE8F88300BF3804402071
:1010F000F81040000000000010004020F8B500BFCC
:10110000F8BC08BC9E467047D90F400065014000FE
:10111000F8B500BFF8BC08BC9E46704741014000CE
:101120000100000000093D00010101000000000075
:1011300000000000FC02402064034020CC0340205B
:10114000000000000000000000000000000000009F
:10115000000000000000000000000000000000008F
:10116000000000000000000000000000000000007F
:10117000000000000000000000000000000000006F
:10118000000000000000000000000000000000005F
:10119000000000000000000000000000000000004F
:1011A000000000000000000000000000000000003F
:1011B000000000000000000000000000000000002F
:1011C000000000000000000000000000000000001F
:1011D000000000000000000001000000000000000E
:1011E0000E33CDAB34126DE6ECDE05000B000000D3
:1011F00000000000000000000000000000000000EF
:1012000000000000000000000000000000000000DE
:1012100000000000000000000000000000000000CE
:1012200000000000000000000000000000000000BE
:0C1550000000000000000000D404402057
:04000005004009FDB1
:00000001FF
